{
  "contractName": "ExerciseC6A",
  "abi": [
    {
      "inputs": [],
      "payable": false,
      "stateMutability": "nonpayable",
      "type": "constructor"
    },
    {
      "constant": true,
      "inputs": [
        {
          "internalType": "address",
          "name": "account",
          "type": "address"
        }
      ],
      "name": "isUserRegistered",
      "outputs": [
        {
          "internalType": "bool",
          "name": "",
          "type": "bool"
        }
      ],
      "payable": false,
      "stateMutability": "view",
      "type": "function"
    },
    {
      "constant": false,
      "inputs": [
        {
          "internalType": "bool",
          "name": "opState",
          "type": "bool"
        }
      ],
      "name": "setOperationalState",
      "outputs": [],
      "payable": false,
      "stateMutability": "nonpayable",
      "type": "function"
    },
    {
      "constant": true,
      "inputs": [],
      "name": "getOperationalState",
      "outputs": [
        {
          "internalType": "bool",
          "name": "",
          "type": "bool"
        }
      ],
      "payable": false,
      "stateMutability": "view",
      "type": "function"
    },
    {
      "constant": false,
      "inputs": [
        {
          "internalType": "address",
          "name": "account",
          "type": "address"
        },
        {
          "internalType": "bool",
          "name": "isAdmin",
          "type": "bool"
        }
      ],
      "name": "registerUser",
      "outputs": [],
      "payable": false,
      "stateMutability": "nonpayable",
      "type": "function"
    }
  ],
  "bytecode": "0x60806040526001600260006101000a81548160ff021916908315150217905550600060405190808252806020026020018201604052801561004f5781602001602082028038833980820191505090505b50600390805190602001906100659291906100b8565b5034801561007257600080fd5b50336000806101000a81548173ffffffffffffffffffffffffffffffffffffffff021916908373ffffffffffffffffffffffffffffffffffffffff160217905550610185565b828054828255906000526020600020908101928215610131579160200282015b828111156101305782518260006101000a81548173ffffffffffffffffffffffffffffffffffffffff021916908373ffffffffffffffffffffffffffffffffffffffff160217905550916020019190600101906100d8565b5b50905061013e9190610142565b5090565b61018291905b8082111561017e57600081816101000a81549073ffffffffffffffffffffffffffffffffffffffff021916905550600101610148565b5090565b90565b610977806101946000396000f3fe608060405234801561001057600080fd5b506004361061004c5760003560e01c8063163f752214610051578063951faf00146100ad578063a8c20edb146100fd578063e18ee09e1461011f575b600080fd5b6100936004803603602081101561006757600080fd5b81019080803573ffffffffffffffffffffffffffffffffffffffff16906020019092919050505061014f565b604051808215151515815260200191505060405180910390f35b6100fb600480360360408110156100c357600080fd5b81019080803573ffffffffffffffffffffffffffffffffffffffff16906020019092919080351515906020019092919050505061022d565b005b6101056104be565b604051808215151515815260200191505060405180910390f35b61014d6004803603602081101561013557600080fd5b810190808035151590602001909291905050506104d5565b005b60008073ffffffffffffffffffffffffffffffffffffffff168273ffffffffffffffffffffffffffffffffffffffff1614156101d6576040517f08c379a000000000000000000000000000000000000000000000000000000000815260040180806020018281038252602281526020018061089b6022913960400191505060405180910390fd5b600160008373ffffffffffffffffffffffffffffffffffffffff1673ffffffffffffffffffffffffffffffffffffffff16815260200190815260200160002060000160009054906101000a900460ff169050919050565b60011515600260009054906101000a900460ff16151514610299576040517f08c379a00000000000000000000000000000000000000000000000000000000081526004018080602001828103825260258152602001806108bd6025913960400191505060405180910390fd5b6000809054906101000a900473ffffffffffffffffffffffffffffffffffffffff1673ffffffffffffffffffffffffffffffffffffffff163373ffffffffffffffffffffffffffffffffffffffff161461035b576040517f08c379a000000000000000000000000000000000000000000000000000000000815260040180806020018281038252601c8152602001807f43616c6c6572206973206e6f7420636f6e7472616374206f776e65720000000081525060200191505060405180910390fd5b600160008373ffffffffffffffffffffffffffffffffffffffff1673ffffffffffffffffffffffffffffffffffffffff16815260200190815260200160002060000160009054906101000a900460ff161561041e576040517f08c379a000000000000000000000000000000000000000000000000000000000815260040180806020018281038252601b8152602001807f5573657220697320616c726561647920726567697374657265642e000000000081525060200191505060405180910390fd5b6040518060400160405280600115158152602001821515815250600160008473ffffffffffffffffffffffffffffffffffffffff1673ffffffffffffffffffffffffffffffffffffffff16815260200190815260200160002060008201518160000160006101000a81548160ff02191690831515021790555060208201518160000160016101000a81548160ff0219169083151502179055509050505050565b6000600260009054906101000a900460ff16905090565b600260009054906101000a900460ff1615158115151415610541576040517f08c379a000000000000000000000000000000000000000000000000000000000815260040180806020018281038252603a815260200180610909603a913960400191505060405180910390fd5b600160003373ffffffffffffffffffffffffffffffffffffffff1673ffffffffffffffffffffffffffffffffffffffff16815260200190815260200160002060000160019054906101000a900460ff16610603576040517f08c379a00000000000000000000000000000000000000000000000000000000081526004018080602001828103825260168152602001807f43616c6c6572206973206e6f7420616e2061646d696e0000000000000000000081525060200191505060405180910390fd5b600080905060008090505b60038054905081101561069c573373ffffffffffffffffffffffffffffffffffffffff166003828154811061063f57fe5b9060005260206000200160009054906101000a900473ffffffffffffffffffffffffffffffffffffffff1673ffffffffffffffffffffffffffffffffffffffff16141561068f576001915061069c565b808060010191505061060e565b5080156106f4576040517f08c379a00000000000000000000000000000000000000000000000000000000081526004018080602001828103825260278152602001806108e26027913960400191505060405180910390fd5b60033390806001815401808255809150509060018203906000526020600020016000909192909190916101000a81548173ffffffffffffffffffffffffffffffffffffffff021916908373ffffffffffffffffffffffffffffffffffffffff160217905550506002600380549050106107c95781600260006101000a81548160ff02191690831515021790555060006040519080825280602002602001820160405280156107b15781602001602082028038833980820191505090505b50600390805190602001906107c79291906107cd565b505b5050565b828054828255906000526020600020908101928215610846579160200282015b828111156108455782518260006101000a81548173ffffffffffffffffffffffffffffffffffffffff021916908373ffffffffffffffffffffffffffffffffffffffff160217905550916020019190600101906107ed565b5b5090506108539190610857565b5090565b61089791905b8082111561089357600081816101000a81549073ffffffffffffffffffffffffffffffffffffffff02191690555060010161085d565b5090565b9056fe276163636f756e7427206d75737420626520612076616c696420616464726573732e436f6e7472616374206973206e6f742063757272656e746c79206f7065726174696f6e616c43616c6c65722068617320616c72656164792063616c6c656420746869732066756e6374696f6e4e6577206d6f6465206d75737420626520646966666572656e742066726f6d206578697374696e67206f7065726174696f6e616c207374617465a265627a7a723158209b3d0375d398a989fbf8eddd9d96060cbcd4e9d06a386cb0419080f67d1f177364736f6c634300050b0032",
  "source": "pragma solidity ^0.5.8;\n\ncontract ExerciseC6A {\n\n    /********************************************************************************************/\n    /*                                       DATA VARIABLES                                     */\n    /********************************************************************************************/\n\n    uint constant M = 2;\n    struct UserProfile {\n        bool isRegistered;\n        bool isAdmin;\n    }\n\n    address private contractOwner;                  // Account used to deploy contract\n    mapping(address => UserProfile) userProfiles;   // Mapping for storing user profiles\n    bool private operational = true;\n    address[] multiCalls = new address[](0);\n\n\n    /********************************************************************************************/\n    /*                                       EVENT DEFINITIONS                                  */\n    /********************************************************************************************/\n\n    // No events\n\n    /**\n    * @dev Constructor\n    *      The deploying account becomes contractOwner\n    */\n    constructor\n                                (\n                                )\n                                public\n    {\n        contractOwner = msg.sender;\n        // Register five admins to enable 3 of 5 control\n        // registerUser(\"ae6ae8e5ccbfb04590405997ee2d52d2b330726137b875053c36d94e974d162f\",true);\n        // registerUser(\"0dbbe8e4ae425a6d2687f1a7e3ba17bc98c673636790f1b8ad91193c05875ef1\",true);\n        // registerUser(\"c88b703fb08cbea894b6aeff5a544fb92e78a18e19814cd85da83b71f772aa6c\",true);\n        // registerUser(\"388c684f0ba1ef5017716adb5d21a053ea8e90277d0868337519f97bede61418\",true);\n        // registerUser(\"659cbb0e2411a44db63778987b1e22153c086a95eb6b18bdf89de078917abc63\",true);\n    }\n\n    /********************************************************************************************/\n    /*                                       FUNCTION MODIFIERS                                 */\n    /********************************************************************************************/\n\n    // Modifiers help avoid duplication of code. They are typically used to validate something\n    // before a function is allowed to be executed.\n\n    /**\n    * @dev Modifier that requires the \"ContractOwner\" account to be the function caller\n    */\n    modifier requireContractOwner()\n    {\n        require(msg.sender == contractOwner, \"Caller is not contract owner\");\n        _;\n    }\n\n    /**\n    * @dev Modifier that requires the contract to be in an operational state\n    */\n    modifier isOperational()\n    {\n        require(operational == true, \"Contract is not currently operational\");\n        _;\n    }\n\n    /********************************************************************************************/\n    /*                                       UTILITY FUNCTIONS                                  */\n    /********************************************************************************************/\n\n   /**\n    * @dev Check if a user is registered\n    *\n    * @return A bool that indicates if the user is registered\n    */\n    function isUserRegistered\n                            (\n                                address account\n                            )\n                            external\n                            view\n                            returns(bool)\n    {\n        require(account != address(0), \"'account' must be a valid address.\");\n        return userProfiles[account].isRegistered;\n    }\n\n    /**\n    * @dev Set operational state of the contract\n    *\n    */\n    function setOperationalState\n                            (\n                                bool opState\n                            )\n                            external\n                            // requireContractOwner()\n    {\n        // operational = opState;\n        require(opState != operational, \"New mode must be different from existing operational state\");\n        require(userProfiles[msg.sender].isAdmin, \"Caller is not an admin\");\n\n        bool isDuplicate = false;\n        for(uint c = 0; c < multiCalls.length; c++){\n            if (multiCalls[c] == msg.sender) {\n                isDuplicate = true;\n                break;\n            }\n        }\n\n        require(!isDuplicate, \"Caller has already called this function\");\n\n        multiCalls.push(msg.sender);\n        if (multiCalls.length >= M) {\n            operational = opState;\n            multiCalls = new address[](0);\n        }\n    }\n\n\n\n    /**\n    * @dev Get operational state of the contract\n    *\n    */\n    function getOperationalState()\n                            external\n                            view\n                            returns(bool)\n    {\n        return operational;\n    }\n\n    /********************************************************************************************/\n    /*                                     SMART CONTRACT FUNCTIONS                             */\n    /********************************************************************************************/\n\n    function registerUser\n                                (\n                                    address account,\n                                    bool isAdmin\n                                )\n                                external\n                                isOperational()\n                                requireContractOwner()\n    {\n        require(!userProfiles[account].isRegistered, \"User is already registered.\");\n\n        userProfiles[account] = UserProfile({\n                                                isRegistered: true,\n                                                isAdmin: isAdmin\n                                            });\n    }\n}\n\n",
  "sourcePath": "/Users/joshcork/Source/github/joshcork/udacity-bc-practice/practice-4/contracts/ExerciseC6A.sol",
  "compiler": {
    "name": "solc",
    "version": "0.5.11+commit.c082d0b4.Emscripten.clang"
  },
  "schemaVersion": "3.0.10",
  "updatedAt": "2019-08-25T04:06:46.054Z",
  "devdoc": {
    "methods": {
      "constructor": {
        "details": "Constructor     The deploying account becomes contractOwner"
      },
      "getOperationalState()": {
        "details": "Get operational state of the contract    "
      },
      "isUserRegistered(address)": {
        "details": "Check if a user is registered",
        "return": "A bool that indicates if the user is registered"
      },
      "setOperationalState(bool)": {
        "details": "Set operational state of the contract    "
      }
    }
  },
  "userdoc": {
    "methods": {
      "registerUser(address,bool)": {
        "notice": "*****************************************************************************************"
      }
    }
  }
}